{"abi":[{"type":"constructor","inputs":[],"stateMutability":"nonpayable"},{"type":"function","name":"balanceOf","inputs":[{"name":"","type":"address","internalType":"address"}],"outputs":[{"name":"","type":"uint256","internalType":"uint256"}],"stateMutability":"view"},{"type":"function","name":"burn","inputs":[{"name":"from","type":"address","internalType":"address"},{"name":"value","type":"uint256","internalType":"uint256"}],"outputs":[],"stateMutability":"nonpayable"},{"type":"function","name":"decimals","inputs":[],"outputs":[{"name":"","type":"uint8","internalType":"uint8"}],"stateMutability":"view"},{"type":"function","name":"mint","inputs":[{"name":"to","type":"address","internalType":"address"},{"name":"value","type":"uint256","internalType":"uint256"}],"outputs":[],"stateMutability":"nonpayable"},{"type":"function","name":"name","inputs":[],"outputs":[{"name":"","type":"string","internalType":"string"}],"stateMutability":"view"},{"type":"function","name":"owner","inputs":[],"outputs":[{"name":"","type":"address","internalType":"address"}],"stateMutability":"view"},{"type":"function","name":"symbol","inputs":[],"outputs":[{"name":"","type":"string","internalType":"string"}],"stateMutability":"view"},{"type":"function","name":"totalSupply","inputs":[],"outputs":[{"name":"","type":"uint256","internalType":"uint256"}],"stateMutability":"view"},{"type":"event","name":"Burn","inputs":[{"name":"from","type":"address","indexed":true,"internalType":"address"},{"name":"value","type":"uint256","indexed":false,"internalType":"uint256"}],"anonymous":false},{"type":"event","name":"Mint","inputs":[{"name":"to","type":"address","indexed":true,"internalType":"address"},{"name":"value","type":"uint256","indexed":false,"internalType":"uint256"}],"anonymous":false},{"type":"event","name":"Transfer","inputs":[{"name":"from","type":"address","indexed":true,"internalType":"address"},{"name":"to","type":"address","indexed":true,"internalType":"address"},{"name":"value","type":"uint256","indexed":false,"internalType":"uint256"}],"anonymous":false}],"bytecode":{"object":"0x60c0604052601660809081527f496e7465722d426c6f636b636861696e20546f6b656e0000000000000000000060a0525f9061003b908261012c565b5060408051808201909152600381526212509560ea1b6020820152600190610063908261012c565b506002805460ff1916601217905534801561007c575f5ffd5b50600480546001600160a01b031916331790556101e6565b634e487b7160e01b5f52604160045260245ffd5b600181811c908216806100bc57607f821691505b6020821081036100da57634e487b7160e01b5f52602260045260245ffd5b50919050565b601f82111561012757805f5260205f20601f840160051c810160208510156101055750805b601f840160051c820191505b81811015610124575f8155600101610111565b50505b505050565b81516001600160401b0381111561014557610145610094565b6101598161015384546100a8565b846100e0565b6020601f82116001811461018b575f83156101745750848201515b5f19600385901b1c1916600184901b178455610124565b5f84815260208120601f198516915b828110156101ba578785015182556020948501946001909201910161019a565b50848210156101d757868401515f19600387901b60f8161c191681555b50505050600190811b01905550565b6105b7806101f35f395ff3fe608060405234801561000f575f5ffd5b5060043610610085575f3560e01c806370a082311161005857806370a08231146100f25780638da5cb5b1461011157806395d89b411461013c5780639dc29fac14610144575f5ffd5b806306fdde031461008957806318160ddd146100a7578063313ce567146100be57806340c10f19146100dd575b5f5ffd5b610091610157565b60405161009e9190610430565b60405180910390f35b6100b060035481565b60405190815260200161009e565b6002546100cb9060ff1681565b60405160ff909116815260200161009e565b6100f06100eb366004610480565b6101e2565b005b6100b06101003660046104a8565b60056020525f908152604090205481565b600454610124906001600160a01b031681565b6040516001600160a01b03909116815260200161009e565b6100916102dc565b6100f0610152366004610480565b6102e9565b5f8054610163906104c8565b80601f016020809104026020016040519081016040528092919081815260200182805461018f906104c8565b80156101da5780601f106101b1576101008083540402835291602001916101da565b820191905f5260205f20905b8154815290600101906020018083116101bd57829003601f168201915b505050505081565b6004546001600160a01b031633146102155760405162461bcd60e51b815260040161020c90610500565b60405180910390fd5b6001600160a01b0382165f908152600560205260408120805483929061023c908490610555565b925050819055508060035f8282546102549190610555565b90915550506040518181526001600160a01b038316907f0f6798a560793a54c3bcfe86a93cde1e73087d944c0ea20544137d41213968859060200160405180910390a26040518181526001600160a01b038316905f907fddf252ad1be2c89b69c2b068fc378daa952ba7f163c4a11628f55a4df523b3ef906020015b60405180910390a35050565b60018054610163906104c8565b6004546001600160a01b031633146103135760405162461bcd60e51b815260040161020c90610500565b6001600160a01b0382165f908152600560205260409020548111156103715760405162461bcd60e51b8152602060048201526014602482015273496e73756666696369656e742062616c616e636560601b604482015260640161020c565b6001600160a01b0382165f908152600560205260408120805483929061039890849061056e565b925050819055508060035f8282546103b0919061056e565b90915550506040518181526001600160a01b038316907fcc16f5dbb4873280815c1ee09dbd06736cffcc184412cf7a71a0fdb75d397ca59060200160405180910390a26040518181525f906001600160a01b038416907fddf252ad1be2c89b69c2b068fc378daa952ba7f163c4a11628f55a4df523b3ef906020016102d0565b602081525f82518060208401528060208501604085015e5f604082850101526040601f19601f83011684010191505092915050565b80356001600160a01b038116811461047b575f5ffd5b919050565b5f5f60408385031215610491575f5ffd5b61049a83610465565b946020939093013593505050565b5f602082840312156104b8575f5ffd5b6104c182610465565b9392505050565b600181811c908216806104dc57607f821691505b6020821081036104fa57634e487b7160e01b5f52602260045260245ffd5b50919050565b60208082526021908201527f4f6e6c79206f776e65722063616e2063616c6c20746869732066756e6374696f6040820152603760f91b606082015260800190565b634e487b7160e01b5f52601160045260245ffd5b8082018082111561056857610568610541565b92915050565b818103818111156105685761056861054156fea264697066735822122018bdf6918ad8cc8d17e84205e753fa80e18ad93ce65cf684387caa0e8bd35ecb64736f6c634300081c0033","linkReferences":{}},"methodIdentifiers":{"balanceOf(address)":"70a08231","burn(address,uint256)":"9dc29fac","decimals()":"313ce567","mint(address,uint256)":"40c10f19","name()":"06fdde03","owner()":"8da5cb5b","symbol()":"95d89b41","totalSupply()":"18160ddd"},"id":0}